:020000040800F2
:100000000000022041250008350800083B080008D0
:1000100041080008470800084D08000800000000DB
:10002000000000000000000000000000530800086D
:1000300061080008000000006F0800087D08000843
:1000400091250008912500089125000891250008B8
:1000500091250008912500089125000891250008A8
:100060009125000891250008912500089125000898
:100070009125000891250008912500089125000888
:100080009125000891250008912500089125000878
:100090009125000891250008912500089125000868
:1000A0009125000891250008912500089125000858
:1000B0009125000891250008912500089125000848
:1000C0009125000891250008912500089125000838
:1000D0009125000891250008912500089125000828
:1000E0009125000891250008912500089125000818
:1000F0009125000891250008912500089125000808
:1001000091250008912500089125000891250008F7
:1001100091250008912500089125000891250008E7
:1001200091250008912500089125000891250008D7
:1001300091250008912500089125000891250008C7
:1001400091250008912500089125000891250008B7
:1001500091250008912500089125000891250008A7
:100160009125000891250008912500089125000897
:100170009125000891250008912500080000000045
:080180009125000891250008FB
:1001880010B5054C237833B9044B13B10448AFF3C9
:1001980000800123237010BDDC1100200000000046
:1001A8009425000808B5034B1BB103490348AFF376
:1001B800008008BD00000000E01100209425000820
:1001C80053B94AB9002908BF00281CBF4FF0FF31B6
:1001D8004FF0FF3000F074B9ADF1080C6DE904CEB2
:1001E80000F006F8DDF804E0DDE9022304B070470A
:1001F8002DE9F047089D04468E46002B4DD18A42D2
:10020800944669D9B2FA82F252B101FA02F3C2F104
:10021800200120FA01F10CFA02FC41EA030E944095
:100228004FEA1C48210CBEFBF8F61FFA8CF708FBB6
:1002380016E341EA034306FB07F199420AD91CEB8E
:10024800030306F1FF3080F01F81994240F21C81C0
:10025800023E63445B1AA4B2B3FBF8F008FB103308
:1002680044EA034400FB07F7A7420AD91CEB04043D
:1002780000F1FF3380F00A81A74240F2078164440D
:10028800023840EA0640E41B00261DB1D440002392
:10029800C5E900433146BDE8F0878B4209D9002DF6
:1002A80000F0EF800026C5E9000130463146BDE880
:1002B800F087B3FA83F6002E4AD18B4202D38242EA
:1002C80000F2F980841A61EB030301209E46002D99
:1002D800E0D0C5E9004EDDE702B9FFDEB2FA82F2EE
:1002E800002A40F09280A1EB0C014FEA1C471FFA4C
:1002F8008CFE0126200CB1FBF7F307FB131140EA33
:1003080001410EFB03F0884208D91CEB010103F1FF
:10031800FF3802D2884200F2CB804346091AA4B2C1
:10032800B1FBF7F007FB101144EA01440EFB00FE95
:10033800A64508D91CEB040400F1FF3102D2A645FA
:1003480000F2BB800846A4EB0E0440EA03409CE799
:10035800C6F12007B34022FA07FC4CEA030C20FA46
:1003680007F401FA06F31C43F9404FEA1C4900FA66
:1003780006F3B1FBF9F8200C1FFA8CFE09FB1811E3
:1003880040EA014108FB0EF0884202FA06F20BD956
:100398001CEB010108F1FF3A80F08880884240F2A6
:1003A8008580A8F102086144091AA4B2B1FBF9F0EA
:1003B80009FB101144EA014100FB0EFE8E4508D9E5
:1003C8001CEB010100F1FF346CD28E456AD902386A
:1003D800614440EA0840A0FB0294A1EB0E01A1424F
:1003E800C846A64656D353D05DB1B3EB080261EBBD
:1003F8000E0101FA07F722FA06F3F1401F43C5E997
:10040800007100263146BDE8F087C2F12003D840CC
:100418000CFA02FC21FA03F3914001434FEA1C470E
:100428001FFA8CFEB3FBF7F007FB10360B0C43EA00
:10043800064300FB0EF69E4204FA02F408D91CEBB0
:10044800030300F1FF382FD29E422DD902386344AE
:100458009B1B89B2B3FBF7F607FB163341EA03414E
:1004680006FB0EF38B4208D91CEB010106F1FF389D
:1004780016D28B4214D9023E6144C91A46EA004694
:1004880038E72E46284605E70646E3E61846F8E626
:100498004B45A9D2B9EB020864EB0C0E0138A3E76F
:1004A8004646EAE7204694E74046D1E7D0467BE750
:1004B800023B614432E7304609E76444023842E7C8
:1004C800704700BF70B50D4D0D4C641BA41000267D
:1004D800A64209D10B4D0C4C02F058F8641BA4102D
:1004E8000026A64205D170BD55F8043B9847013651
:1004F800EEE755F8043B98470136F2E71426000862
:10050800142600081426000818260008024403468A
:10051800934200D1704703F8011BF9E780B500AF9B
:1005280000F096FF00F074F800F08AFF00F0DAF8A7
:1005380000F01CFD1F2000F00BFC00F09BFE4FF4A8
:1005480080712C4801F078FA0346002B18D11F203F
:1005580000F0FEFB1F234FF6FF722749002000F032
:1005680053FC4FF47A7000F03FFF1F234FF6FF72E1
:100578002249302000F048FC4FF47A7000F034FF34
:100588004FF400511E4801F057FA0346002B19D1C9
:100598004FF4FC6000F0DCFB4FF4FC6300221949C7
:1005A800002000F031FC4FF47A7000F01DFF4FF48A
:1005B800FC6300221449302000F026FC4FF47A70C6
:1005C80000F012FF4FF400610A4801F035FA0346C3
:1005D800002BB4D14FF4FC6000F0BAFB4FF4FC637D
:1005E80000220A49002000F00FFC4FF47A7000F056
:1005F800FBFEA4E700200240AC250008BC2500084B
:1006080000080240CC250008E0250008F025000875
:1006180080B594B000AF07F12003302200211846BE
:10062800FFF774FF07F10C0300221A605A609A6002
:10063800DA601A610023BB60284B1B6C274A43F021
:1006480080531364254B1B6C03F08053BB60BB685D
:1006580000237B60224B1B68214A43F480431360CC
:100668001F4B1B6803F480437B607B6801233B625C
:100678004FF480337B620223BB634FF48003FB6338
:1006880019233B644FF4A8737B640223BB640723DC
:10069800FB6407F12003184601F000FA0346002B1B
:1006A80001D000F095F80F23FB6002233B61002383
:1006B8007B614FF4A053BB614FF48053FB6107F19A
:1006C8000C030521184601F061FC0346002B01D0FC
:1006D80000F07EF800BF5037BD4680BD00380240AC
:1006E8000070004080B58AB000AF07F11403002203
:1006F8001A605A609A60DA601A6100233B61314BD4
:100708001B6B304A43F4807313632E4B1B6B03F44B
:1007180080733B613B690023FB602A4B1B6B294AB2
:1007280043F004031363274B1B6B03F00403FB60C4
:10073800FB680023BB60234B1B6B224A43F020035A
:100748001363204B1B6B03F02003BB60BB680023C3
:100758007B601C4B1B6B1B4A43F080031363194BD4
:100768001B6B03F080037B607B6800233B60154BA9
:100778001B6B144A43F001031363124B1B6B03F00A
:1007880001033B603B684FF410637B610023BB614E
:100798000023FB6107F1140319460B4800F0B0FF72
:1007A8004FF400537B610023BB610023FB6107F119
:1007B80014031946054800F0A3FF00BF2837BD46BB
:1007C80080BD00BF003802400020024000080240FF
:1007D80080B400AF72B600BFFEE7000080B483B0FB
:1007E80000AF00237B60104B5B6C0F4A43F48043DF
:1007F80053640D4B5B6C03F480437B607B68002380
:100808003B60094B1B6C084A43F080531364064B4A
:100818001B6C03F080533B603B6800BF0C37BD4640
:100828005DF8047B704700BF0038024080B400AF19
:10083800FEE780B400AFFEE780B400AFFEE780B407
:1008480000AFFEE780B400AFFEE780B400AF00BFA2
:10085800BD465DF8047B704780B400AF00BFBD465D
:100868005DF8047B704780B400AF00BFBD465DF8FB
:10087800047B704780B500AF00F03CFE00F09AFDA5
:1008880000BF80BD80B400AF064BD3F88830054A5E
:1008980043F47003C2F8883000BFBD465DF8047B9E
:1008A800704700BF00ED00E080B58AB000AF07F1E7
:1008B800140300221A605A609A60DA601A610023F1
:1008C8003B61404B1B6B3F4A43F4807313633D4BC2
:1008D8001B6B03F480733B613B690023FB60394B5E
:1008E8001B6B384A43F004031363364B1B6B03F04E
:1008F8000403FB60FB680023BB60324B1B6B314A6F
:1009080043F0200313632F4B1B6B03F02003BB60E2
:10091800BB6800237B602B4B1B6B2A4A43F0800388
:100928001363284B1B6B03F080037B607B680023F9
:100938003B60244B1B6B234A43F001031363214B99
:100948001B6B03F001033B603B68012000F042F899
:10095800022000F03FF8032000F03CF8042000F0EB
:1009680039F84FF480637B610123BB610023FB618D
:1009780002233B6207F114031946134800F0C0FE36
:100988004FF4C0737B610123BB610023FB61022329
:100998003B6207F1140319460C4800F0B1FE04232A
:1009A8007B610123BB610023FB6102233B6207F1EA
:1009B80014031946064800F0A3FE00BF2837BD46B9
:1009C80080BD00BF003802400020024000140240F1
:1009D8000008024080B582B000AF0346FB71FB7986
:1009E800013BFB71FB79002B06D101224FF480619A
:1009F800114801F039F81AE0FB79012B05D10122E1
:100A080080210E4801F030F811E0FB79022B06D165
:100A180001224FF48071094801F026F807E0FB79BC
:100A2800032B04D101220421054801F01DF800BF61
:100A38000837BD4680BD00BF0020024000140240B8
:100A48000008024080B500AF0A4B88221A8000F0E7
:100A580081F84FF0D8430A221A8000F08EF8054B2F
:100A680089221A8000F076F84FF0D84302221A80C3
:100A780000BF80BD0000086C80B500AFFFF7E2FF43
:100A880000F07BF8324B10221A804FF0D8430F2227
:100A98001A802F4B04221A804FF0D84382221A80E2
:100AA80000F06BF82A4B14221A804FF0D8433B22EF
:100AB8001A80274B15221A804FF0D84300221A803B
:100AC800234B16221A804FF0D84301221A80204B5C
:100AD80017221A804FF0D84300221A801C4B182284
:100AE8001A804FF0D84305221A80194B19221A8010
:100AF8004FF0D8430F221A80154B1A221A804FF054
:100B0800D84301221A80124B1B221A804FF0D84377
:100B180002221A800E4B1C221A804FF0D843002262
:100B28001A800B4B1D221A804FF0D84307221A80D7
:100B3800074B1E221A804FF0D84300221A80044B1C
:100B48001F221A804FF0D84309221A8000BF80BDA7
:100B58000000086C80B483B000AF0023FB7102E092
:100B6800FB790133FB71FB79092BF9D900BF00BF71
:100B78000C37BD465DF8047B704780B483B000AF86
:100B88000023FB8002E0FB880133FB80FB8841F2F5
:100B980087329342F7D900BF00BF0C37BD465DF8D6
:100BA800047B704780B400AF054B01221A804FF0D8
:100BB800D84380221A8000BFBD465DF8047B704789
:100BC8000000086C80B400AF054BC7221A804FF0B4
:100BD800D84301221A8000BFBD465DF8047B7047E8
:100BE8000000086C80B400AF1E4B30221A804FF012
:100BF800D84300221A801B4B31221A804FF0D84369
:100C080000221A80174B34221A804FF0D843DF2273
:100C18001A80144B35221A804FF0D84301221A80CB
:100C2800104B32221A804FF0D84300221A800D4B05
:100C380033221A804FF0D84300221A80094B3622FB
:100C48001A804FF0D8430F221A80064B37221A8099
:100C58004FF0D84301221A8000BFBD465DF8047BDF
:100C6800704700BF0000086C80B483B000AF0B4B26
:100C78008A221A804FF0D8431B889BB2FB71FB79FC
:100C880063F07F03FB714FF0D843FA7992B21A8070
:100C980000BF0C37BD465DF8047B70470000086C48
:100CA80080B483B000AF0B4B8A221A804FF0D84330
:100CB8001B889BB2FB71FB7923F01003FB714FF08B
:100CC800D843FA7992B21A8000BF0C37BD465DF856
:100CD800047B70470000086C80B485B000AF034601
:100CE800FB71FB7903F00F03FB730D4B8A221A800B
:100CF8004FF0D8431B889BB2BB73BB7B23F00F0319
:100D0800BB73BA7BFB7B1343BB734FF0D843BA7BEF
:100D180092B21A8000BF1437BD465DF8047B704755
:100D28000000086C80B483B000AF0346FB71074B2A
:100D38008B221A804FF0D843FA7992B21A8000BFFA
:100D48000C37BD465DF8047B704700BF0000086C97
:100D580080B584B000AF0346FB800023FB60002110
:100D6800002000F015F800F043F80023FB6006E0CF
:100D78004FF0D842FB881380FB680133FB60FB68A7
:100D8800B3F5FF3FF4D300BF00BF1037BD4680BDA9
:100D980080B483B000AF03460A46FB801346BB808D
:100DA800124B46221A804FF0D842FB8813800F4B13
:100DB80047221A804FF0D842FB881B0A9BB2138047
:100DC8000A4B48221A804FF0D842BB881380074B41
:100DD80049221A804FF0D842BB881B0A9BB2138065
:100DE80000BF0C37BD465DF8047B70470000086CF7
:100DF80080B400AF034B02221A8000BFBD465DF8E5
:100E0800047B70470000086C90B589B002AFB960E8
:100E180011461A460346FB810B46BB811346FB80ED
:100E280000237B6100237B8212E0BB681A78BC89AF
:100E3800F989788AFB880093234600F01FF87B8A9B
:100E480010337B82BB680133BB607B6901337B61F4
:100E5800BB681B78002B14BF01230023DAB27B691F
:100E6800312B94BF01230023DBB21340DBB2002BEC
:100E7800DBD100BF00BF1C37BD4690BD90B585B023
:100E880000AF0446084611461A462346FB8003462F
:100E9800BB800B46FB7013463B800023FB8100237D
:100EA800BB8100237B810023FB813AE0FB78A3F11F
:100EB800200213465B001344DB001A46FB891344E7
:100EC8001C4A32F813307B810023BB8123E07A89E6
:100ED800BB8942FA03F303F00103002B0CD0FA8814
:100EE800BB89134498B2BA88FB8913449BB23A88E9
:100EF800194600F021F80BE0FA88BB89134498B230
:100F0800BA88FB8913449BB23A8C194600F014F84E
:100F1800BB890133BB81BB890F2BD8D9FB8901332E
:100F2800FB81FB89172BC1D900BF00BF1437BD4611
:100F380090BD00BF0400002080B582B000AF03461A
:100F4800FB800B46BB8013467B80BA88FB88114622
:100F58001846FFF71DFFFFF74BFF4FF0D8427B887D
:100F6800138000BF0837BD4680BD000080B582B041
:100F780000AF00F01DF800F02FF9142000F034FA4B
:100F88000A4B00221A804FF0D8431B88FB80FB884D
:100F9800752B07D1FFF770FDFFF704FEFFF712FE70
:100FA800FFF720FE00BF0837BD4680BD0000086C73
:100FB80080B58EB000AF07F1240300221A605A6092
:100FC8009A60DA601A6100233B627C4B1B6B7B4A98
:100FD80043F020031363794B1B6B03F020033B6240
:100FE8003B6A0023FB61754B1B6B744A43F080031B
:100FF8001363724B1B6B03F08003FB61FB690023D7
:10100800BB616E4B1B6B6D4A43F0100313636B4B54
:101018001B6B03F01003BB61BB6900237B61674B4B
:101028001B6B664A43F008031363644B1B6B03F0A6
:1010380008037B617B6900233B61604B1B6B5F4A44
:1010480043F0010313635D4B1B6B03F001033B612A
:101058003B690023FB60594B1B6B584A43F4807370
:101068001363564B1B6B03F48073FB60FB68002310
:10107800BB60524B1B6B514A43F0400313634F4B09
:101088001B6B03F04003BB60BB6800237B604B4BCA
:101098001B6B4A4A43F002031363484B1B6B03F074
:1010A80002037B607B6800220821454800F0DCFCD5
:1010B80000220821434800F0D7FC40237B6200232C
:1010C800BB620023FB6207F1240319463E4800F087
:1010D80017FB01237B620023BB620023FB6207F13D
:1010E80024031946364800F00BFB08237B620123D2
:1010F800BB620023FB6200233B6307F1240319460C
:101108002F4800F0FDFA08237B620123BB6200230D
:10111800FB6200233B6307F124031946294800F0CA
:10112800EFFA2A4B1B68002B44D1284B01221A6086
:1011380000233B60214B9B6B204A43F001039363E0
:101148001E4B9B6B03F001033B603B684FF68073BB
:101158007B620223BB620023FB6203233B630C23F5
:101168007B6307F124031946194800F0C9FA4EF2C7
:1011780033737B620223BB620023FB6203233B635E
:101188000C237B6307F1240319460E4800F0B8FAD4
:101198004FF480537B620223BB620023FB6203236C
:1011A8003B630C237B6307F124031946094800F0CD
:1011B800A7FA00E000BF3837BD4680BD00380240BE
:1011C80000200240000C024000140240F8110020E8
:1011D800001002400018024080B59CB000AF3B1DD3
:1011E80000221A605A609A60DA601A615A619A613C
:1011F8004FF020433B621E4B7B620623BB620023F9
:10120800FB6200233B6310237B630023BB63002343
:10121800FB6300233B6400237B644FF48053BB646F
:101228000023FB6400233B6500237B650023BB652B
:1012380000237B6601237B600023BB600423FB60E3
:1012480000233B6100237B610023BB610023FB611A
:10125800391D07F120030022184601F043F8034620
:10126800002B01D0FFF7B4FA00BF7037BD4680BD30
:10127800040100A080B500AFFFF7F6FCFFF710FDF2
:101288000220FFF729FDFF20FFF74CFD00BF80BDBE
:1012980080B483B000AF03463960FB7197F907301B
:1012A800002B0ADB3B68DAB20C4997F907301201C8
:1012B800D2B20B4483F800230AE03B68DAB208494B
:1012C800FB7903F00F03043B1201D2B20B441A76E8
:1012D80000BF0C37BD465DF8047B704700E100E0B5
:1012E80000ED00E080B582B000AF78607B68013B1C
:1012F800B3F1807F01D301230FE00A4A7B68013BE9
:1013080053600F214FF0FF30FFF7C2FF054B00225B
:101318009A60044B07221A60002318460837BD4616
:1013280080BD00BF10E000E080B582B000AF0023B0
:10133800FB7129E0FA791C4913465B0013449B00B2
:101348000B44043300221A60FA79174913465B00EC
:1013580013449B000B44083300221A60FA7912499F
:1013680013465B0013449B000B44013300221A70A0
:10137800FA790D4913465B0013449B000B44002285
:101388001A70FB790133FB71FB79032BD2D9074B18
:101398001B68074AA2FB03239B091846FFF7A2FF15
:1013A80000BF0837BD4680BD0412002000000020A1
:1013B800D34D621080B400AF094B1B68002B09D0D5
:1013C800074B1B68013B064A1360002B02D1054BF3
:1013D80001221A7000BFBD465DF8047B704700BF4C
:1013E800FC1100200012002080B483B000AF7860A8
:1013F8007B68002B19D07B68012B01D102237B600D
:1014080072B600BF0C4A7B68136062B600BF07E083
:101418000A4B1B78DBB2012B02D1084B00221A7051
:10142800054B1B68002BF3D100E000BF0C37BD460D
:101438005DF8047B704700BFFC11002000120020FB
:1014480080B500AFFFF730FAFFF76EFF00BF80BD31
:1014580080B500AF0E4B1B680D4A43F40073136050
:101468000B4B1B680A4A43F480631360084B1B68E4
:10147800074A43F480731360032000F00DF90F202E
:1014880000F008F8FFF7AAF90023184680BD00BF4E
:10149800003C024080B582B000AF7860124B1A68F9
:1014A800124B1B7819464FF47A73B3FBF1F3B2FB76
:1014B800F3F3184600F017F90346002B01D0012377
:1014C8000EE07B680F2B0AD8002279684FF0FF30B6
:1014D80000F0EDF8064A7B681360002300E0012362
:1014E80018460837BD4680BD00000020D8110020EE
:1014F800D411002080B400AF064B1B781A46064B67
:101508001B681344044A136000BFBD465DF8047BA2
:10151800704700BFD81100203412002080B400AFFB
:10152800034B1B681846BD465DF8047B704700BF37
:101538003412002080B485B000AF78607B6803F077
:101548000703FB600C4BDB68BB60BA684FF6FF0310
:101558001340BB60FB681A02BB68134343F0BF63C8
:1015680043F40033BB60044ABB68D36000BF143740
:10157800BD465DF8047B704700ED00E080B400AF25
:10158800044BDB681B0A03F007031846BD465DF8E9
:10159800047B704700ED00E080B483B000AF0346E1
:1015A8003960FB7197F90730002B0ADB3B68DAB228
:1015B8000C4997F907301201D2B20B4483F8002383
:1015C8000AE03B68DAB20849FB7903F00F03043BF1
:1015D8001201D2B20B441A7600BF0C37BD465DF833
:1015E800047B704700E100E000ED00E080B489B0C2
:1015F80000AFF860B9607A60FB6803F00703FB612D
:10160800FB69C3F10703042B28BF0423BB61FB69F3
:101618000433062B02D9FB69033B00E000237B61FE
:101628004FF0FF32BB6902FA03F3DA43BB681A4092
:101638007B699A404FF0FF317B6901FA03F3D94384
:101648007B680B40134318462437BD465DF8047B7E
:101658007047000080B582B000AF78607B68013BBE
:10166800B3F1807F01D301230FE00A4A7B68013B75
:1016780053600F214FF0FF30FFF78EFF054B00221C
:101688009A60044B07221A60002318460837BD46A3
:1016980080BD00BF10E000E080B582B000AF786088
:1016A8007868FFF747FF00BF0837BD4680BD80B5A3
:1016B80086B000AF0346B9607A60FB7300237B6194
:1016C800FFF75CFF78617A68B9687869FFF78EFF81
:1016D800024697F90F3011461846FFF75DFF00BF25
:1016E8001837BD4680BD80B582B000AF7860786895
:1016F800FFF7B0FF034618460837BD4680BD000017
:1017080080B489B000AF7860396000237B61002322
:101718003B610023BB610023FB616BE10122FB6994
:1017280002FA03F37B613B681B687A6913403B61EB
:101738003A697B699A4240F05A813B685B6803F0DA
:101748000303012B05D03B685B6803F00303022BFE
:1017580030D17B689B68BB61FB695B00032202FA9E
:1017680003F3DB43BA691340BB613B68DA68FB6982
:101778005B0002FA03F3BA691343BB617B68BA6979
:101788009A607B685B68BB610122FB6902FA03F31C
:10179800DB43BA691340BB613B685B681B0903F014
:1017A8000102FB6902FA03F3BA691343BB617B6860
:1017B800BA695A603B685B6803F00303032B17D0D0
:1017C8007B68DB68BB61FB695B00032202FA03F3F9
:1017D800DB43BA691340BB613B689A68FB695B00ED
:1017E80002FA03F3BA691343BB617B68BA69DA602A
:1017F8003B685B6803F00303022B23D1FB69DA081B
:101808007B68083253F82230BB61FB6903F0070399
:101818009B000F2202FA03F3DB43BA691340BB6152
:101828003B681A69FB6903F007039B0002FA03F39C
:10183800BA691343BB61FB69DA087B680832B96986
:1018480043F822107B681B68BB61FB695B000322BD
:1018580002FA03F3DB43BA691340BB613B685B6878
:1018680003F00302FB695B0002FA03F3BA6913434E
:10187800BB617B68BA691A603B685B6803F44033F4
:10188800002B00F0B4800023FB60604B5B6C5F4A68
:1018980043F4804353645D4B5B6C03F48043FB600B
:1018A800FB685B4AFB699B08023352F82330BB6133
:1018B800FB6903F003039B000F2202FA03F3DB43E7
:1018C800BA691340BB617B68524A93422BD07B684C
:1018D800514A934225D07B68504A93421FD07B6877
:1018E8004F4A934219D07B684E4A934213D07B6883
:1018F8004D4A93420DD07B684C4A934207D07B688F
:101908004B4A934201D107230EE008230CE006233B
:101918000AE0052308E0042306E0032304E0022389
:1019280002E0012300E00023FA6902F003029200BA
:101938009340BA691343BB613549FB699B0802337D
:10194800BA6941F823203B4B9B68BB613B69DB4389
:10195800BA691340BB613B685B6803F48013002BD2
:1019680003D0BA693B691343BB61324ABB699360D0
:10197800304BDB68BB613B69DB43BA691340BB6131
:101988003B685B6803F40013002B03D0BA693B691A
:101998001343BB61274ABB69D360264B5B68BB61B5
:1019A8003B69DB43BA691340BB613B685B6803F47E
:1019B8000033002B03D0BA693B691343BB611D4A4E
:1019C800BB6953601B4B1B68BB613B69DB43BA694E
:1019D8001340BB613B685B6803F48033002B03D082
:1019E800BA693B691343BB61124ABB691360FB695F
:1019F8000133FB61FB690F2B7FF690AE00BF00BF80
:101A08002437BD465DF8047B704700BF00380240AC
:101A18000038014000000240000402400008024073
:101A2800000C02400010024000140240001802405E
:101A3800001C0240003C014080B485B000AF7860D3
:101A48000B467B807B681A697B881340002B02D089
:101A58000123FB7301E00023FB73FB7B184614375B
:101A6800BD465DF8047B704780B483B000AF7860F2
:101A78000B467B8013467B707B78002B03D07A88DB
:101A88007B689A6103E07B881A047B689A6100BFCF
:101A98000C37BD465DF8047B7047000080B586B002
:101AA80000AF78607B68002B01D1012367E27B6877
:101AB8001B6803F00103002B75D0884B9B6803F06B
:101AC8000C03042B0CD0854B9B6803F00C03082BEC
:101AD80012D1824B5B6803F48003B3F5800F0BD1FE
:101AE8007E4B1B6803F40033002B5BD07B685B687C
:101AF800002B57D1012342E27B685B68B3F5803F36
:101B080006D1764B1B68754A43F4803313601DE099
:101B18007B685B68B3F5A02F0CD1704B1B686F4ACC
:101B280043F4802313606D4B1B686C4A43F4803385
:101B380013600BE0694B1B68684A23F48033136019
:101B4800664B1B68654A23F4802313607B685B68D7
:101B5800002B13D0FFF7E2FC386108E0FFF7DEFC4A
:101B680002463B69D31A642B01D9032307E25B4B76
:101B78001B6803F40033002BF0D014E0FFF7CEFC11
:101B8800386108E0FFF7CAFC02463B69D31A642BA8
:101B980001D90323F3E1514B1B6803F40033002BF5
:101BA800F0D100E000BF7B681B6803F00203002B44
:101BB80063D04A4B9B6803F00C03002B0BD0474BB8
:101BC8009B6803F00C03082B1CD1444B5B6803F49F
:101BD8008003002B16D1414B1B6803F00203002B36
:101BE80005D07B68DB68012B01D00123C7E13B4BA3
:101BF8001B6823F0F8027B681B69DB003749134335
:101C08000B603AE07B68DB68002B20D0344B012264
:101C18001A60FFF783FC386108E0FFF77FFC024693
:101C28003B69D31A022B01D90323A8E12B4B1B686C
:101C380003F00203002BF0D0284B1B6823F0F802B6
:101C48007B681B69DB00254913430B6015E0244BB7
:101C580000221A60FFF762FC386108E0FFF75EFCBB
:101C680002463B69D31A022B01D9032387E11B4B98
:101C78001B6803F00203002BF0D17B681B6803F09C
:101C88000803002B36D07B685B69002B16D0154BF8
:101C980001221A60FFF742FC386108E0FFF73EFCBA
:101CA80002463B69D31A022B01D9032367E10B4B88
:101CB8005B6F03F00203002BF0D01BE0094B0022FE
:101CC8001A60FFF72BFC38610EE0FFF727FC02468D
:101CD8003B69D31A022B07D9032350E1003802408D
:101CE80000004742800E4742884B5B6F03F00203B7
:101CF800002BEAD17B681B6803F00403002B00F07B
:101D080097800023FB75814B1B6C03F08053002BDD
:101D18000FD10023BB607D4B1B6C7C4A43F0805382
:101D280013647A4B1B6C03F08053BB60BB680123C0
:101D3800FB75774B1B6803F48073002B18D1744B29
:101D48001B68734A43F480731360FFF7E7FB38613D
:101D580008E0FFF7E3FB02463B69D31A022B01D9DF
:101D680003230CE16A4B1B6803F48073002BF0D04B
:101D78007B689B68012B06D1644B1B6F634A43F059
:101D8800010313671CE07B689B68052B0CD15F4B34
:101D98001B6F5E4A43F0040313675C4B1B6F5B4A7F
:101DA80043F0010313670BE0584B1B6F574A23F0AE
:101DB80001031367554B1B6F544A23F00403136741
:101DC8007B689B68002B15D0FFF7A8FB38610AE0F9
:101DD800FFF7A4FB02463B69D31A41F288329342CB
:101DE80001D90323CBE0494B1B6F03F00203002BFF
:101DF800EED014E0FFF792FB38610AE0FFF78EFBA4
:101E080002463B69D31A41F28832934201D903232F
:101E1800B5E03E4B1B6F03F00203002BEED1FB7DB8
:101E2800012B05D1394B1B6C384A23F080531364BE
:101E38007B689B69002B00F0A180344B9B6803F002
:101E48000C03082B5CD07B689B69022B41D1314B7A
:101E580000221A60FFF762FB386108E0FFF75EFBBB
:101E680002463B69D31A022B01D9032387E0274B8B
:101E78001B6803F00073002BF0D17B68DA697B687C
:101E88001B6A1A437B685B6A9B011A437B689B6ADF
:101E98005B08013B1B041A437B68DB6A1B061B4972
:101EA80013434B601B4B01221A60FFF737FB386165
:101EB80008E0FFF733FB02463B69D31A022B01D92E
:101EC80003235CE0114B1B6803F00073002BF0D078
:101ED80054E0104B00221A60FFF720FB386108E03D
:101EE800FFF71CFB02463B69D31A022B01D90323D7
:101EF80045E0064B1B6803F00073002BF0D13DE072
:101F08007B689B69012B07D1012338E00038024028
:101F180000700040600047421B4B5B68FB607B68B9
:101F28009B69012B28D0FB6803F480027B68DB697E
:101F38009A4221D1FB6803F03F027B681B6A9A42F0
:101F48001AD1FA6847F6C07313407A68526A920148
:101F5800934211D1FB6803F440327B689B6A5B08AB
:101F6800013B1B049A4207D1FB6803F070627B684F
:101F7800DB6A1B069A4201D0012300E000231846C1
:101F88001837BD4680BD00BF0038024080B584B018
:101F980000AF786039607B68002B01D10123CCE069
:101FA800684B1B6803F007033A689A420CD9654BE3
:101FB8003A68D2B21A70634B1B6803F007033A6899
:101FC8009A4201D00123B8E07B681B6803F0020342
:101FD800002B20D07B681B6803F00403002B05D07E
:101FE800594B9B68584A43F4E05393607B681B68DD
:101FF80003F00803002B05D0534B9B68524A43F467
:1020080060439360504B9B6823F0F0027B689B68A9
:102018004D4913438B607B681B6803F00103002B59
:1020280044D07B685B68012B07D1474B1B6803F4DE
:102038000033002B19D101237FE07B685B68022BFA
:1020480003D07B685B68032B07D13F4B1B6803F009
:102058000073002B09D101236FE03B4B1B6803F091
:102068000203002B01D1012367E0374B9B6823F063
:1020780003027B685B68344913438B60FFF74EFAB1
:10208800F8600AE0FFF74AFA0246FB68D31A41F201
:102098008832934201D903234FE02B4B9B6803F00E
:1020A8000C027B685B689B009A42EBD1254B1B684E
:1020B80003F007033A689A420CD2224B3A68D2B22C
:1020C8001A70204B1B6803F007033A689A4201D044
:1020D800012332E07B681B6803F00403002B08D05F
:1020E800194B9B6823F4E0527B68DB68164913435D
:1020F8008B607B681B6803F00803002B09D0124B28
:102108009B6823F460427B681B69DB000E4913431C
:102118008B6000F021F802460B4B9B681B0903F00B
:102128000F030A49CB5C22FA03F3094A1360094BEF
:102138001B681846FFF7AEF9002318461037BD464E
:1021480080BD00BF003C024000380240FC2500086A
:1021580000000020D41100202DE9B04F90B000AF4E
:1021680000237B630023FB6300233B630023BB63E3
:10217800594B9B6803F00C03082B0DD0082B00F279
:10218800A180002B02D0042B03D09BE0534BBB63F0
:102198009BE0534BBB6398E04F4B5B6803F03F03F6
:1021A8007B634D4B5B6803F48003002B28D04A4BBC
:1021B8005B689B0900223B627A623B6AC3F30800B2
:1021C8000021474B03FB01F2002300FB03F31344F8
:1021D800434AA0FB0212FA620A46BA62FA6A134438
:1021E800FB627B6B0022BB61FA61D7E90623D7E962
:1021F8000A01FDF7E5FF02460B461346FB6353E071
:10220800354B5B689B0900223B617A613B69C3F3EC
:10221800080A4FF0000B52465B464FF000004FF0A3
:102228000001590141EAD261500102460B46B2EB66
:102238000A0863EB0B094FF000024FF000034FEA66
:10224800891343EA98634FEA8812B2EB080463EBF8
:1022580009054FF000024FF00003EB0043EA547306
:10226800E20014461D4614EB0A033B6045EB0B03E2
:102278007B604FF000024FF00003D7E90045294684
:102288008B02214643EA915321468A021046194699
:102298007B6B0022BB60FA60D7E90223FDF790FF51
:1022A80002460B461346FB630B4B5B681B0C03F0A3
:1022B800030301335B003B63FA6B3B6BB2FBF3F345
:1022C800BB6302E0054BBB6300BFBB6B18464037DE
:1022D800BD46BDE8B08F00BF003802400024F400BE
:1022E80040787D0180B584B000AFF860B9607A604D
:1022F800FB68002B01D1012338E0FB6893F84930D3
:10230800DBB2002B06D1FB68002283F84820F8686E
:1023180000F030F8FB681A68FB6808331946104665
:1023280000F032F8FB681868FB689B681A46B968C1
:1023380000F094F8FB685868FB689A68FB681B6BA8
:10234800796800F0C1F8FB681B68FA68926853F86E
:102358002210FB681B68FA68926841F0010143F893
:102368002210FB68012283F8492000231846103701
:10237800BD4680BD80B483B000AF786000BF0C3725
:10238800BD465DF8047B704780B487B000AF7860C5
:1023980039603B681A687B6853F822303A681268DB
:1023A80023F001017B6843F822103B689B68082BE7
:1023B80002D140237B6101E000237B613B685A68BE
:1023C8007B691A433B689B681A433B68DB681A437E
:1023D8003B681B691A433B685B691A433B68DB69C6
:1023E8001A433B681B6A1A433B685B6A1A433B689B
:1023F8009B6A1A433B68DB6A1A433B681B6B1343AF
:102408003B613B689B693A6913433B613B68DB6B03
:102418003A6913433B61104BFB60FB6843F48063EC
:10242800FB60FB6843F4E023FB603B681A687B6849
:1024380053F82220FB68DB4302EA03013B681A6871
:102448003B6919437B6843F82210002318461C3760
:10245800BD465DF8047B70477FFB080080B485B0FB
:1024680000AFF860B9607A607B685A1CFB6853F863
:10247800223003F04041BB681A68BB685B681B01E7
:102488001A43BB689B681B021A43BB68DB681B04C2
:102498001A43BB681B69013B1B051A43BB685B6990
:1024A800023B1B061A43BB689B6913437A680132D7
:1024B8001943FB6843F82210002318461437BD4619
:1024C8005DF8047B7047000080B485B000AFF86009
:1024D800B9607A603B603B68B3F5804F1DD1FB68FB
:1024E8007A6853F82220134B1340BA681168BA6807
:1024F800526812011143BA68926812021143BA680D
:1025080092691143BA68D26812040A4343EA020185
:10251800FB687A6843F8221005E0FB687A686FF078
:10252800704143F82210002318461437BD465DF861
:10253800047B70470000F0CFDFF834D0FEF7A2F933
:102548000C480D490D4A002302E0D458C450043306
:10255800C4188C42F9D30A4A0A4C002301E01360DC
:102568000432A242FBD3FDF7ADFFFDF7D7FF70475A
:102578000000022000000020DC1100201C260008BA
:10258800DC11002038120020FEE70000F8B500BF7B
:10259800F8BC08BC9E467047F8B500BFF8BC08BC3C
:0425A8009E46704794
:1025AC0053544D33322050726F6772616D000000CE
:1025BC006A757374696E20426F72616D65000000FC
:1025CC004465627567203A2053544C494E4B2D5646
:1025DC0032000000436F6D70696C65203A20434DEA
:1025EC00414B4500436F727465782D4D342E2E008F
:1025FC0000000000000000000102030406070809A7
:08260C00ECDBFF7F0100000080
:04261400AD0100080C
:04261800890100082C
:10261C00007A030A00000000000000000000000027
:10262C00000000000000000000000000000000009E
:10263C00000000000000000000000000000000008E
:10264C0000000000000080018001800180018001F9
:10265C008001800180018001800180018001800166
:10266C00000000008001800100000000000000005C
:10267C000000000000000000CC00CC00CC00CC001E
:10268C00CC00CC00000000000000000000000000A6
:10269C00000000000000000000000000000000002E
:1026AC00000000000000000000000000000000001E
:1026BC00600C600C600C30063006FE1FFE1F3006EE
:1026CC0038071803FE1FFE1F180318038C018C011A
:1026DC008C01000000008000E003F80F9C0E8C1CA5
:1026EC008C188C009800F801E007800E801C8C1868
:1026FC008C189C18B80CF00FE003800080000000D0
:10270C00000000000000000000000E181B0C110C53
:10271C0011061106110311039B018E01C038C06C08
:10272C0060446044304430441844186C0C38000049
:10273C00000000000000E001F0033807180618063E
:10274C003003F001F000F8009C310E33061E061C1D
:10275C00061C063FFC73F021000000000000000086
:10276C0000000000000000000C000C000C000C002D
:10277C000C000C0000000000000000000000000035
:10278C00000000000000000000000000000000003D
:10279C00000000000000000200038001C000C00027
:1027AC00600060003000300030003000300030003D
:1027BC003000300060006000C000C00080010003E9
:1027CC0000020000000020006000C00080018001B9
:1027DC0000030003000600060006000600060006C3
:1027EC00000600060003000380018001C0006000A9
:1027FC0020000000000000000000000000000000AD
:10280C00C000C000D806F807E0013003380700000C
:10281C0000000000000000000000000000000000AC
:10282C00000000000000000000000000000000009C
:10283C0080018001800180018001FC3FFC3F800110
:10284C008001800180018001000000000000000078
:10285C00000000000000000000000000000000006C
:10286C00000000000000000000000000000000005C
:10287C0000000000000080018001000100018000C8
:10288C00000000000000000000000000000000003C
:10289C00000000000000000000000000E007E0075E
:1028AC00000000000000000000000000000000001C
:1028BC00000000000000000000000000000000000C
:1028CC0000000000000000000000000000000000FC
:1028DC00000000000000C000C0000000000000006C
:1028EC00000000000000000C000C000600060006B2
:1028FC000003000300038003800180018001C000FD
:10290C00C000C0006000600000000000000000007B
:10291C00000000000000E003F007380E180C0C1843
:10292C000C180C180C180C180C180C180C180C187B
:10293C00180C380EF007E003000000000000000047
:10294C0000000000000000018001C001F0019801AE
:10295C00880180018001800180018001800180015B
:10296C008001800180018001000000000000000057
:10297C00000000000000E003F80F180C0C180C18F5
:10298C0000180018000C000600038001C000600055
:10299C0030001800FC1FFC1F0000000000000000AD
:1029AC00000000000000E001F807180E0C0C0C0CE5
:1029BC00000C0006C003C007000C001800180C180F
:1029CC000C18180CF807E0030000000000000000D1
:1029DC00000000000000000C000E000F000F800D26
:1029EC00C00C600C600C300C180C0C0CFC3FFC3F49
:1029FC00000C000C000C000C00000000000000009B
:102A0C00000000000000F80FF80F180018000C0070
:102A1C00EC03FC071C0E001C0018001800180C1806
:102A2C001C0C180EF807E00300000000000000006A
:102A3C00000000000000C007F00F381C1818180028
:102A4C000C00CC03EC0F3C0E1C1C0C180C180C18B6
:102A5C00181C380EF007E003000000000000000016
:102A6C00000000000000FC1FFC1F000C000600060C
:102A7C00000380038001C001C000E0006000600022
:102A8C00700030003000300000000000000000003A
:102A9C00000000000000E003F007380E180C180CC2
:102AAC00180C3806F007F007180C0C180C180C183A
:102ABC000C18380CF80FE0030000000000000000B8
:102ACC00000000000000E003F007380E1C0C0C188E
:102ADC000C180C181C1C381EF81BE0190018000CE4
:102AEC00000C1C0EF807F0010000000000000000B4
:102AFC0000000000000000000000000000000000CA
:102B0C0080018001000000000000000000000000B7
:102B1C0000000000800180010000000000000000A7
:102B2C000000000000000000000000000000000099
:102B3C008001800100000000000000000000000087
:102B4C0000000000800180010001000180000000F5
:102B5C000000000000000000000000000000000069
:102B6C00000000000010001C800FE003F8001800AB
:102B7C00F800E003800F001C0010000000000000B3
:102B8C000000000000000000000000000000000039
:102B9C0000000000F81F000000000000F81F0000FB
:102BAC000000000000000000000000000000000019
:102BBC000000000000000000000000000000000009
:102BCC000000000008003800F001C007001F0018CA
:102BDC00001FC007F00138000800000000000000D2
:102BEC00000000000000E003F80F180C0C180C1883
:102BFC000018000C000600038001C000C000C000DB
:102C0C0000000000C000C000000000000000000038
:102C1C000000000000000000E00718180420C22982
:102C2C00224A114409440944094409221113E20CB3
:102C3C00024004201818E00700000000000000000B
:102C4C0000000000000080038003C006C006C00620
:102C5C00600C600C301830183018F83FF83F1C70BE
:102C6C000C600C6006C006C00000000000000000F4
:102C7C00000000000000FC03FC0F0C0C0C180C18DE
:102C8C000C180C0CFC07FC0F0C180C300C300C3016
:102C9C000C300C18FC1FFC070000000000000000AA
:102CAC00000000000000C007F01F38381C300C700A
:102CBC000660060006000600060006000600066018
:102CCC000C701C30F01FE00700000000000000003A
:102CDC00000000000000FE03FE0F060E061806188A
:102CEC000630063006300630063006300630061840
:102CFC000618060EFE0FFE03000000000000000088
:102D0C00000000000000FC3FFC3F0C000C000C001D
:102D1C000C000C00FC1FFC1F0C000C000C000C0029
:102D2C000C000C00FC3FFC3F000000000000000009
:102D3C00000000000000F83FF83F180018001800D1
:102D4C0018001800F81FF81F1800180018001800B9
:102D5C001800180018001800000000000000000007
:102D6C00000000000000E00FF83F3C780E6006E029
:102D7C0007C00300030003FE03FE03C007C006C028
:102D8C000EC03CF0F83FE00F000000000000000017
:102D9C000000000000000C300C300C300C300C30FB
:102DAC000C300C30FC3FFC3F0C300C300C300C3039
:102DBC000C300C300C300C30000000000000000017
:102DCC000000000000008001800180018001800172
:102DDC0080018001800180018001800180018001DF
:102DEC0080018001800180010000000000000000D3
:102DFC0000000000000000060006000600060006A9
:102E0C00000600060006000600060006000618066E
:102E1C0018063807F003E001000000000000000075
:102E2C0000000000000006300618060C060606031B
:102E3C008601C60066007600DE008E0106030606DB
:102E4C00060C0618063006600000000000000000AA
:102E5C0000000000000018001800180018001800EE
:102E6C001800180018001800180018001800180096
:102E7C0018001800F81FF81F0000000000000000E8
:102E8C000000000000000EE01EF01EF01EF036D810
:102E9C0036D836D836D866CC66CC66CCC6C6C6C64E
:102EAC00C6C6C6C686C386C300000000000000006C
:102EBC000000000000000C301C303C303C306C300A
:102ECC006C30CC30CC308C310C330C330C360C36A3
:102EDC000C3C0C3C0C380C300000000000000000D6
:102EEC00000000000000E007F81F1C380E700660A0
:102EFC0003C003C003C003C003C003C003C006600B
:102F0C000E701C38F81FE0070000000000000000E5
:102F1C00000000000000FC0FFC1F0C380C300C30C3
:102F2C000C300C300C18FC1FFC070C000C000C00B7
:102F3C000C000C000C000C00000000000000000055
:102F4C00000000000000E007F81F1C380E7006603F
:102F5C0003E003C003C003C003C003C007E0066363
:102F6C000E3F1C3CF83FE0F700C0000000000000E2
:102F7C00000000000000FE0FFE1F06380630063071
:102F8C0006300638FE1FFE0706030606060C06185A
:102F9C000618063006300660000000000000000035
:102FAC00000000000000E003F80F1C0C0C180C18BB
:102FBC000C001C00F803E00F001E00380630063031
:102FCC000E301C1CF80FE007000000000000000091
:102FDC00000000000000FE7FFE7F80018001800168
:102FEC0080018001800180018001800180018001CD
:102FFC0080018001800180010000000000000000C1
:10300C000000000000000C300C300C300C300C3088
:10301C000C300C300C300C300C300C300C300C30C4
:10302C000C301818F81FE00700000000000000002A
:10303C0000000000000003600630063006300C185B
:10304C000C180C18180C180C380E300630067007BB
:10305C0060036003C001C00100000000000000001C
:10306C000000000000000360C361C361C3616633EC
:10307C00663366336633663366336C1B6C1B6C1BB2
:10308C002C1A3C1E380E380E000000000000000008
:10309C000000000000000FE00C7018303018700CAD
:1030AC00600EC00780038003C003E006700C301C68
:1030BC0018180C300E6007E0000000000000000043
:1030CC0000000000000003C006600C301C383818EB
:1030DC00300C6006E007C003800180018001800194
:1030EC0080018001800180010000000000000000D0
:1030FC00000000000000FC7FFC7F00600030001826
:10310C00000C000600038001C000600030001800B5
:10311C000C000600FE7FFE7F000000000000000097
:10312C00000000000000E003E003600060006000AD
:10313C006000600060006000600060006000600083
:10314C006000600060006000600060006000E003F0
:10315C00E003000000003000300060006000600000
:10316C00C000C000C000C0018001800180010003CC
:10317C000003000300060006000000000000000031
:10318C00000000000000E003E00300030003000364
:10319C00000300030003000300030003000300030B
:1031AC000003000300030003000300030003E0031B
:1031BC00E003000000000000C001C00160036003D8
:1031CC00600330063006180C180C000000000000DC
:1031DC0000000000000000000000000000000000E3
:1031EC0000000000000000000000000000000000D3
:1031FC0000000000000000000000000000000000C3
:10320C00000000000000FFFFFFFF000000000000B6
:10321C000000000000000C000C000C000C000C0066
:10322C000C00000000000000000000000000000086
:10323C000000000000000000000000000000000082
:10324C000000000000000000000000000000000072
:10325C00F003F8071C0C0C0C000FF00FF80C0C0C06
:10326C000C0C1C0FF80FF018000000000000000000
:10327C0000000000000018001800180018001800CA
:10328C00D803F80F380C181818181818181818181C
:10329C001818380CF80FD8030000000000000000CC
:1032AC000000000000000000000000000000000012
:1032BC00C003F007300E180C180018001800180086
:1032CC00180C300EF007C0030000000000000000D6
:1032DC00000000000000001800180018001800186A
:1032EC00C01BF01F301C18181818181818181818AC
:1032FC001818301CF01FC01B00000000000000005C
:10330C0000000000000000000000000000000000B1
:10331C00C003F00F300C1818F81FF81F1800180015
:10332C003818301CF00FC00700000000000000002F
:10333C00000000000000800FC00FC000C000C000E3
:10334C00F007F007C000C000C000C000C000C00003
:10335C00C000C000C000C000000000000000000061
:10336C000000000000000000000000000000000051
:10337C00E00DF80F180E0C0C0C0C0C0C0C0C0C0CAF
:10338C000C0C180EF80FE00D000C0C0C1C06F807BA
:10339C00F0010000000018001800180018001800B8
:1033AC00D807F80F381C18181818181818181818E7
:1033BC001818181818181818000000000000000041
:1033CC00000000000000C000C00000000000000071
:1033DC00C000C000C000C000C000C000C000C000E1
:1033EC00C000C000C000C0000000000000000000D1
:1033FC00000000000000C000C00000000000000041
:10340C00C000C000C000C000C000C000C000C000B0
:10341C00C000C000C000C000C000C000C000F80068
:10342C007800000000000C000C000C000C000C00DC
:10343C000C0C0C060C038C01CC006C00FC009C01E9
:10344C008C030C030C060C0C0000000000000000A8
:10345C00000000000000C000C000C000C000C000A0
:10346C00C000C000C000C000C000C000C000C00050
:10347C00C000C000C000C000000000000000000040
:10348C000000000000000000000000000000000030
:10349C007C3CFF7EC7E383C183C183C183C183C1ED
:1034AC0083C183C183C183C1000000000000000000
:1034BC000000000000000000000000000000000000
:1034CC009807F80F381C1818181818181818181806
:1034DC001818181818181818000000000000000020
:1034EC0000000000000000000000000000000000D0
:1034FC00C003F00F300C18181818181818181818D2
:10350C001818300CF00FC003000000000000000081
:10351C00000000000000000000000000000000009F
:10352C00D803F80F380C1818181818181818181879
:10353C001818380CF80FD8031800180018001800C9
:10354C001800000000000000000000000000000057
:10355C00C01BF01F301C1818181818181818181839
:10356C001818301CF01FC01B001800180018001889
:10357C000018000000000000000000000000000027
:10358C00B007F00370003000300030003000300025
:10359C00300030003000300000000000000000005F
:1035AC00000000000000000000000000000000000F
:1035BC00E003F003380E180C3800F003C007000CC1
:1035CC00180C380EF007E0030000000000000000AB
:1035DC0000000000000000008000C000C000C0001F
:1035EC00F007F007C000C000C000C000C000C00061
:1035FC00C000C000C00780070000000000000000F1
:10360C0000000000000000000000000000000000AE
:10361C00181818181818181818181818181818181E
:10362C001818381CF01FE019000000000000000002
:10363C00000000000000000000000000000000007E
:10364C000C18180C180C180C3006300630066003D9
:10365C0060036003C001C001000000000000000016
:10366C00000000000000000000000000000000004E
:10367C00C141C141C36163636363636336363636EC
:10368C0036361C1C1C1C1C1C00000000000000001A
:10369C00000000000000000000000000000000001E
:1036AC001C38381C300C6006600360036003600338
:1036BC006006300C381C1C380000000000000000B4
:1036CC0000000000000000000000000000000000EE
:1036DC001830301830187018600C600CE00CC006F4
:1036EC00C00680038003800380018001C001F000CC
:1036FC00700000000000000000000000000000004E
:10370C00FC1FFC1F000C000600038001C0006000C1
:10371C0030001800FC1FFC1F00000000000000001F
:10372C0000000000000000038001C000C000C000C9
:10373C00C000C000C00060006000300060004000AD
:10374C00C000C000C000C000C000C0008001000369
:10375C0000000000000080018001800180018001D8
:10376C008001800180018001800180018001800145
:10377C008001800180018001800180018001800135
:10378C008001000000006000C000C00180018001C9
:10379C00800180018001000300030006000300018A
:1037AC00800180018001800180018001C0006000E7
:1037BC0000000000000000000000000000000000FD
:1037CC0000000000F010F81F080F000000000000BF
:1037DC0000000000000000000000000000000000DD
:0C37EC00000000001000000001000000C0
:040000050800254189
:00000001FF
